:100000000C9463000C948B000C948B000C94F808F7
:100010000C94F8080C94F8080C948B000C948B004A
:100020000C948B000C948B000C948B000C948B0024
:100030000C948B000C948B000C948B000C948B0014
:100040000C94890A0C948B000C946C010C948B001A
:100050000C948B000C948B000C948B000C948B00F4
:100060000C948B000C948B0000000008000201002F
:100070000003040700000000000000000102040863
:100080001020408001020408102001020408102002
:10009000040404040404040402020202020203032E
:1000A00003030303000000002300260029000000D2
:1000B0000000250028002B0000000000240027007D
:1000C0002A00F101040211241FBECFEFD8E0DEBFE9
:1000D000CDBF13E0A0E0B1E0E4E7F2E202C005909A
:1000E0000D92A232B107D9F724E0A2E2B3E001C039
:1000F0001D92A638B207E1F710E0C4ECD0E004C0CE
:100100002297FE010E94B60EC23CD107C9F70E9499
:100110003B0E0C942D110C94000087E893E00E9494
:10012000380D8DE893E00E94380D86E194E00C9440
:1001300072090C94E0100C94E81068E071E086E11C
:1001400094E00E94850C64EF71E080E090E00E94F2
:10015000F60A6FE071E086E194E00E94850C64EF9E
:1001600071E080E090E00E94F60A68E171E086E1CB
:1001700094E00E94850C64EF71E080E090E00C94C4
:10018000F60ACF93DF9380E88FBF88E98093C100A0
:1001900086E08093C2001092C50087E68093C40079
:1001A00061E086E00E94940B61E085E00E94940B80
:1001B00061E082E00E94940B61E086E00E94CD0B3A
:1001C00061E085E00E94CD0B60E082E00E94CD0BF3
:1001D00060ED77E080E090E00E94F60A61E082E066
:1001E0000E94CD0B60E777E180E090E00E94F60A84
:1001F00040E855E260E070E086E194E00E94FB098F
:1002000062E271E086E194E00E94850C68EA71E6A2
:1002100080E090E00E94F60A65E271E086E194E0F9
:100220000E94850C60E177E280E090E00E94F60A8F
:1002300067E371E086E194E00E94850C60ED77E071
:1002400080E090E00E94F60A63E471E086E194E0C9
:100250000E94850C60ED77E080E090E00E94F60A55
:100260006DE471E086E194E00E94850C60ED77E03A
:1002700080E090E00E94F60A67E571E086E194E094
:100280000E94850C68EE73E080E090E00E94F60A20
:1002900063E671E086E194E00E94850C60ED77E012
:1002A00080E090E00E94F60AC1E0D0E0CE010E941A
:1002B0009900882349F080910601909107010197E8
:1002C00090930701809306012196C536D10571F7F9
:1002D000DF91CF910C949D001F920F920FB60F9259
:1002E00011242F933F934F935F936F938F939F931B
:1002F000EF93FF93809185039091860301969093ED
:100300008603809385036091C60060932203209149
:100310007D0330917E0321303105A9F520918303BF
:10032000309184038217930774F1409181035091B7
:100330008203481759073CF120917F0330918003D5
:100340002F5F3F4F3093800320937F03F901ED5DD2
:10035000FC4F608384179507B1F410927E031092CE
:100360007D0310928603109285038FEF9FEF909389
:10037000800380937F031092840310928303109272
:10038000820310928103FF91EF919F918F916F9162
:100390005F914F913F912F910F900FBE0F901F9043
:1003A000189521E030E030937E0320937D03109276
:1003B0008603109285032FEF3FEF30938003209345
:1003C0007F03E3E2F3E0119223E0ED37F207D9F780
:1003D00090938403809383037093820360938103DB
:1003E000089520E04FE06EE086E194E00E94CB09A2
:1003F00063E173E08DE893E00E94A60D63E173E092
:1004000087E893E00C94A60D0C948D00EF92FF9278
:100410000F931F93CF93DF9300D000D000D0CDB7C0
:10042000DEB76DE671E086E194E00E94780C64E648
:1004300070E080E090E00E94F60A80EAE82E83E017
:10044000F82E00E010E0C8010E949900F7018193A6
:100450007F010B591F4F023FF3E01F07A1F760EA2E
:1004600073E086E194E00E94780C64E670E080E03E
:1004700090E00E94F60A6AE771E086E194E00E944B
:10048000780C68EE73E080E090E00E94F60A6DE779
:1004900071E086E194E00E94780C64E670E080E010
:1004A00090E00E94F60A6DE873E0CE0101960E948A
:1004B000D30D63E971E0CE0101960E94200EBC01CC
:1004C00086E194E00E946A0CCE0101960E94380DEC
:1004D00064EF71E080E090E00E94F60A65EA71E066
:1004E00086E194E00E94780C64E670E080E090E0A1
:1004F0000E94F60A60910601709107014AE050E0FF
:1005000086E194E00E94300D64E670E080E090E0C7
:100510000E94F60A6AE186E194E00E94360860E7EC
:1005200077E180E090E00E94F60A26960FB6F894F4
:10053000DEBF0FBECDBFDF91CF911F910F91FF9016
:10054000EF9008950F931F93CF93DF936DE671E0C3
:1005500086E194E00E94780C64E670E080E090E030
:100560000E94F60A00EA13E0C0E0D0E0CE010E944B
:100570009900F80181938F01CB59DF4FC23FF3E01F
:10058000DF07A1F760EA73E086E194E00E94780C4F
:1005900064E670E080E090E00E94F60A6AE771E0AD
:1005A00086E194E00E94780C68EE73E080E090E0D1
:1005B0000E94F60A6AEB71E086E194E00E94780CF2
:1005C00064E670E080E090E00E94F60A6AE186E16D
:1005D00094E00E94360860E777E180E090E0DF91E8
:1005E000CF911F910F910C94F60ACF93DF9384E67D
:1005F00090E09093070180930601C0E0D0E060E0B6
:10060000CE010E949B002196C11584E0D807B9F75E
:100610006DE671E086E194E00E94780C64E670E09B
:1006200080E090E00E94F60A61E074E086E194E0E8
:100630000E94780C64E670E080E090E00E94F60A88
:100640006AE771E086E194E00E94780C68EE73E05E
:1006500080E090E00E94F60A6AEC71E086E194E0A6
:100660000E94780C64E670E080E090E00E94F60A58
:100670006AE186E194E00E94360860E777E180E075
:1006800090E0DF91CF910C94F60A0F931F93CF93D4
:10069000DF936DE671E086E194E00E94780C64E6F9
:1006A00070E080E090E00E94F60A00EA13E0C0E00B
:1006B000D0E0CE010E949900F80181938F01CB59BF
:1006C000DF4FC23FF3E0DF07A1F760EA73E086E1A6
:1006D00094E00E94780C64E670E080E090E00E9474
:1006E000F60A6AE771E086E194E00E94780C68EE11
:1006F00073E080E090E00E94F60A6CED71E086E124
:1007000094E00E94780C64E670E080E090E00E9443
:10071000F60A6AE186E194E00E94360860E777E134
:1007200080E090E0DF91CF911F910F910C94F60A39
:100730000F931F93CF93DF936DE671E086E194E012
:100740000E94780C64E670E080E090E00E94F60A77
:1007500000EA13E0C0E0D0E0CE010E949900F80169
:1007600081938F01CB59DF4FC23FF3E0DF07A1F741
:1007700060EA73E086E194E00E94780C64E670E041
:1007800080E090E00E94F60A6AE771E086E194E07A
:100790000E94780C68EE73E080E090E00E94F60A18
:1007A00068E072E086E194E00E94780C64E670E014
:1007B00080E090E00E94F60A67E873E086E194E04A
:1007C0000E946A0C64E670E080E090E00E94F60A05
:1007D0006AE186E194E00E94360860E777E180E014
:1007E00090E0DF91CF911F910F910C94F60A0F9337
:1007F0001F93CF93DF936DE671E086E194E00E9452
:10080000780C64E670E080E090E00E94F60A00EA6E
:1008100013E0C0E0D0E0CE010E949900F80181937E
:100820008F01CB59DF4FC23FF3E0DF07A1F760EA4A
:1008300073E086E194E00E94780C64E670E080E06A
:1008400090E00E94F60A6AE771E086E194E00E9477
:10085000780C68EE73E080E090E00E94F60A67E2B0
:1008600072E086E194E00E94780C64E670E080E03B
:1008700090E00E94F60A67E873E086E194E00E9447
:100880006A0C64E670E080E090E00E94F60A6AE19B
:1008900086E194E00E94360860E777E180E090E02E
:1008A000DF91CF911F910F910C94F60A0F931F9334
:1008B000CF93DF936DE671E086E194E00E94780CBF
:1008C00064E670E080E090E00E94F60A6FEC73E06E
:1008D00086E194E00E94780C64E670E080E090E0AD
:1008E0000E94F60A6AE771E086E194E00E94780CC3
:1008F00068EE73E080E090E00E94F60A69E472E03E
:1009000086E194E00E94780C64E670E080E090E07C
:100910000E94F60A00EA13E0C0E0D0E0CE010E9497
:100920009900F80181938F01CB59DF4FC23FF3E06B
:10093000DF07A1F760EA73E086E194E00E94780C9B
:100940006AE186E194E00E94360860E777E180E0A2
:1009500090E0DF91CF911F910F910C94F60A0F93C5
:100960001F93CF93DF936DE671E086E194E00E94E0
:10097000780C64E670E080E090E00E94F60A00EAFD
:1009800013E0C0E0D0E0CE010E949900F80181930D
:100990008F01CB59DF4FC23FF3E0DF07A1F760EAD9
:1009A00073E086E194E00E94780C64E670E080E0F9
:1009B00090E00E94F60A6AE771E086E194E00E9406
:1009C000780C68EE73E080E090E00E94F60A6AE539
:1009D00072E086E194E00E94780C64E670E080E0CA
:1009E00090E00E94F60A65E973E086E194E00E94D7
:1009F000780C64E670E080E090E00E94F60A6AE11C
:100A000086E194E00E94360860E777E180E090E0BC
:100A1000DF91CF911F910F910C94F60A0F931F93C2
:100A2000CF93DF936DE671E086E194E00E94780C4D
:100A300064E670E080E090E00E94F60A00EA13E0CD
:100A4000C0E0D0E0CE010E949900F80181938F01AF
:100A5000CB59DF4FC23FF3E0DF07A1F760EA73E055
:100A600086E194E00E94780C64E670E080E090E01B
:100A70000E94F60A6AE771E086E194E00E94780C31
:100A800068EE73E080E090E00E94F60A6AE672E0A9
:100A900086E194E00E94780C64E670E080E090E0EB
:100AA0000E94F60A6AE186E194E00E94360860E757
:100AB00077E180E090E0DF91CF911F910F910C944E
:100AC000F60AEF92FF920F931F93CF93DF9310924A
:100AD000130410921204C1E0D0E0D0931504C09327
:100AE000140400EA13E0E0901404F0901504C70128
:100AF0000E949900F80181938F01F5E6EF0EF11C39
:100B0000F0921504E092140483E00A3A180759F7AA
:100B100065E973E080EA93E00E94B410892BA9F1A3
:100B200080911204909113048C0F9D1F90931304D5
:100B300080931204CAE0D0E060E0809112049091AA
:100B400013040E94E81080911204909113048B59B1
:100B50009F4F9093130480931204219769F780911B
:100B60000601909107010196909307018093060179
:100B700060E08FEF93E00E949B00DF91CF911F9187
:100B80000F91FF90EF900C94AF04C436D10511F48F
:100B90000E940E0510921504109214042196C53679
:100BA000D10509F09ACFDF91CF911F910F91FF905E
:100BB000EF9008956DE671E086E194E00E94780C74
:100BC00064E670E080E090E00E94F60A61E074E084
:100BD00086E194E00E94780C64E670E080E090E0AA
:100BE0000E94F60A6AE771E086E194E00E94780CC0
:100BF00068EE73E080E090E00E94F60A67EA72E037
:100C000086E194E00E94780C62E370E080E090E07E
:100C10000E94F60A6AE186E194E00E94360860E7E5
:100C200077E180E090E00C94F60AEF92FF920F9348
:100C30001F93CF93DF9380E88FBF60E570E081E082
:100C400090E00E94D10160E971E080E090E00E94B4
:100C5000F60A1FBE80912303882309F4DFC164E6EE
:100C600070E080E090E00E94F60A62EC72E083E2BD
:100C700093E00E94B410892B09F478C0E5E3F3E017
:100C8000ABEAB3E0EF0180818D3009F41082319638
:100C900088818D9383E0EF33F807A1F7C1E0D0E0BE
:100CA00080911404909115048C0F9D1F909315044E
:100CB0008093140400EA13E0E0901404F09015040B
:100CC000C7010E949900F80181938F01F5E6EF0EAC
:100CD000F11CF0921504E092140483E00A3A18071C
:100CE00059F76BEA73E080EA93E00E94B410892B15
:100CF000A1F180E88FBF60EA73E087E893E00E948B
:100D0000DC0D69EC72E086E194E00E94850C68EEEF
:100D100073E080E090E00E94F60A86E00E94030CF7
:100D200061E0892B09F060E086E00E94CD0B85E050
:100D30000E94030C61E0892B09F060E085E00E94CD
:100D4000CD0B86E00E94030C892B19F40E949803B6
:100D500002C00E94F7031FBE09C010921504109232
:100D600014042196C536D10509F09ACF6DEC72E0D6
:100D700083E293E00E94B410892B09F44FC1ECE2A6
:100D8000F3E0A1E0B4E081918D9393E0E633F907BD
:100D9000D1F7E2E5F3E0A8EEB3E081918D9383E033
:100DA000EA36F807D1F700EA13E0C0E0D0E0CE0160
:100DB0000E949900F80181938F01CB59DF4FC23F08
:100DC000F3E0DF07A1F763ED72E088EE93E00E94A5
:100DD000B410892B49F46BED72E088EE93E00E9429
:100DE000B410892BD1F542C0E0EFF3E0AFECB3E0F3
:100DF000EF0180818D3009F41082319688818D93C6
:100E000083E0EB3FF807A1F7109211041092100451
:100E1000CFECD3E0699180911004909111040E946D
:100E20009B0080911004909111048B599F4F9093D7
:100E300011048093100493E0C93DD90759F710922B
:100E40001104109210040E945604E8EEF3E011928F
:100E500084E0E130F807D9F7BECF0E94F502E8EE52
:100E6000F3E0119294E0E130F907D9F761E074E022
:100E700080EA93E00E94B410892B09F4ACC06BEEB9
:100E800072E088EE93E00E94B410892B71F464EF55
:100E900072E088EE93E00E94B410892B09F490C0B0
:100EA000CFEED3E006EB13E02CC0E1EFF3E0A5E9D1
:100EB000B3E0EF0180818D3009F410823196888192
:100EC0008D9383E0EC3FF807A1F7809195038111A2
:100ED0000E946105E8EEF3E0119294E0E130F90739
:100EE000D9F7D5CF21968081F80181938F0166EBE8
:100EF00073E08DE893E00E94DC0DF3E0CC3FDF0768
:100F000031F0FE0188818D3069F71882EBCF809136
:100F10009103909192030A9709F065C08091930321
:100F2000E6EBF3E0919190539A3008F081E093E082
:100F3000E03CF907B9F78093930381113BC080919E
:100F40009403811137C00091060110910701C1E09F
:100F5000D0E01092130410921204CE010E94990066
:100F6000811145C0101611060CF041C00150110945
:100F70001093070100930601D0931304C093120449
:100F8000C6EBD3E0699180911204909113040E9402
:100F90009B0080911204909113048B599F4F909362
:100FA000130480931204E3E0C03CDE0759F70E946B
:100FB000060206C010929303109294030E94A202AC
:100FC0006BEF72E088EE93E00E94B410892B31F150
:100FD0000C94000023C0DF91CF911F910F91FF90DF
:100FE000EF900C94DA0581E08093940397CF01157C
:100FF000110531F08FEF93E00E949900813241F4A6
:1010000061E28FEF93E00E949B000E944503D8CFDE
:101010002196C536D10509F09CCFD2CFDF91CF9173
:101020001F910F91FF90EF900895209177043091D8
:10103000780428173907B9F4909135048091360463
:10104000981789F0E0913504F0E0E95CFB4F80816E
:101050002091350430E02F5F3F4F2F7333272093CB
:10106000350490E008958FEF9FEF08951F93CF937D
:10107000DF93DC015C968D919C915D97009749F41C
:1010800081E090E013969C938E93129780E090E01D
:101090003BC05196ED91FC91529750962C915097F0
:1010A000322F30951FB75E964C915E9741FB7727A4
:1010B00070F941FD6095F8944081772311F0422B3F
:1010C00001C043234083EC012197F1F748E05081B0
:1010D00060FF02C0522B01C053235083EC012197C3
:1010E000F1F76695415099F78081772311F08323BA
:1010F00001C0822B80831FBF5C968D919C915D9770
:101100000197F1F781E090E0DF91CF911F91089571
:10111000089520917704309178042817390771F4E5
:101120009091350480913604981741F0E091350490
:10113000F0E0E95CFB4F808190E008958FEF9FEF36
:10114000089520917704309178042817390771F4B5
:10115000809136042091350490E0805C9F4F821B83
:10116000910960E470E00E944B0E089580E090E0E9
:101170000895E0917704F0917804E817F90769F48D
:10118000A389B4899C918589809589238C93109239
:1011900078041092770481E0089580E00895CF9359
:1011A000DF93EC018A8D9B8D892BF1F08091770480
:1011B000909178048C179D07B9F0009711F00E9468
:1011C000B9088E8D8E7F8E8F109236041092350462
:1011D000D0937804C0937704EB89FC8980819D8942
:1011E000892B808381E001C080E0DF91CF91089559
:1011F0001F920F920FB60F9211242F933F934F938C
:101200005F936F937F938F939F93AF93BF93EF936E
:10121000FF93E0917704F0917804309709F451C07E
:10122000868DA685B785958581FF04C08C9189231D
:1012300029F447C08C91892309F043C0A389B4895C
:101240009C918589809589238C93868997890197BC
:10125000F1F7208D318DA685B785758558E040E082
:10126000C9010197F1F7842F90E095958795482F54
:101270006C91672309F04068515091F7868D81FD8C
:1012800040958091360490E001968F7399272091C4
:101290003504281749F0A0913604B0E0A95CBB4F93
:1012A0004C938093360403C0868D8160868F828D37
:1012B000938D0197F1F7A389B4898C919589892B36
:1012C0008C93FF91EF91BF91AF919F918F917F91FF
:1012D0006F915F914F913F912F910F900FBE0F90A3
:1012E0001F90189525E033E0FC01318320830C9496
:1012F000B9081F93CF93DF93EC01162F6E8D66957F
:10130000617081E06827812F0E94CD0B61E0812F01
:101310000E94940B812F90E0FC01E458FF4FE49170
:10132000E88BFC01E057FF4FE491F0E0EE0FFF1F68
:10133000E255FF4F859194919A8B898BDF91CF91E4
:101340001F9108951F93CF93DF93EC01162F60E058
:10135000812F0E94940B8E8D81FD04C061E0812F4E
:101360000E94CD0B1C87812F90E0FC01E458FF4FB9
:10137000E491ED87FC01E057FF4FE491F0E0EE0FC0
:10138000FF1FEC55FF4F859194919F878E87DF91CA
:10139000CF911F910895FF920F931F93CF93DF93E7
:1013A000EC01F62E522F1B821A8208EE13E020E089
:1013B00030E00C831D832E833F8385E093E0998387
:1013C00088831F8A1E8A198E188E1B8E1A8E1D8E78
:1013D0001C8E8E8D8E7F50FB81F98E8F642FCE01F7
:1013E0000E9479096F2DCE01DF91CF911F910F914E
:1013F000FF900C94A209CF93DF93EC019A01AB010B
:101400001B8E1A8E198E188E1F8A1E8A60E079E054
:101410008DE390E00E94810EC9012430310520F057
:10142000B9016350710902C061E070E07D8F6C8F7B
:10143000EC85E63108F068C0B901769567956431AE
:10144000710518F06351710902C061E070E07F8B93
:101450006E8B069718F0C901059702C081E090E0F5
:10146000998F888FC901880F991F820F931F9695B6
:101470008795969587958D30910510F00C9702C051
:1014800081E090E09B8F8A8F20916800E83050F0D7
:1014900091E0EE3008F490E081E001C0880F9A9569
:1014A000EAF701C084E0822B809368002C85283005
:1014B00038F02E3040F0263148F48CE690E008C039
:1014C0008DE690E005C08BE690E002C080E090E001
:1014D0009C8B8B8B283030F481E001C0880F2A95DB
:1014E000EAF70DC0822F90E02E3010F4089701C06B
:1014F0000E9791E001C0990F8A95EAF7892F8D8B9D
:101500008C8D9D8D0197F1F7CE01DF91CF910C94D9
:10151000CF081F920F920FB60F9211242F933F9373
:101520008F939F93AF93BF9380917A0490917B04A4
:10153000A0917C04B0917D043091790423E0230FC5
:101540002D3720F40196A11DB11D05C026E8230FFB
:101550000296A11DB11D2093790480937A04909383
:101560007B04A0937C04B0937D0480917E049091D1
:101570007F04A0918004B09181040196A11DB11D4A
:1015800080937E0490937F04A0938004B0938104A1
:10159000BF91AF919F918F913F912F910F900FBE6F
:1015A0000F901F9018953FB7F89480917E0490910A
:1015B0007F04A0918004B091810426B5A89B05C04A
:1015C0002F3F19F00196A11DB11D3FBF6627782F4F
:1015D000892F9A2F620F711D811D911D42E0660FA8
:1015E000771F881F991F4A95D1F708958F929F9270
:1015F000AF92BF92CF92DF92EF92FF926B017C018C
:101600000E94D30A4B015C01C114D104E104F1042E
:10161000F1F00E944A0E0E94D30A681979098A09DA
:101620009B09683E73408105910570F321E0C21A61
:10163000D108E108F10888EE880E83E0981EA11C0D
:10164000B11CC114D104E104F10429F7DDCFFF90EE
:10165000EF90DF90CF90BF90AF909F908F900895C4
:10166000789484B5826084BD84B5816084BD85B57D
:10167000826085BD85B5816085BDEEE6F0E0808144
:1016800081608083E1E8F0E0108280818260808365
:10169000808181608083E0E8F0E0808181608083E8
:1016A000E1EBF0E0808184608083E0EBF0E080811A
:1016B00081608083EAE7F0E08081846080838081BC
:1016C0008260808380818160808380818068808364
:1016D0001092C1000895833081F028F4813099F090
:1016E0008230A1F008958730A9F08830B9F08430B5
:1016F000D1F4809180008F7D03C0809180008F772E
:1017000080938000089584B58F7702C084B58F7D63
:1017100084BD08958091B0008F7703C08091B000A0
:101720008F7D8093B0000895CF93DF9390E0FC010C
:10173000E458FF4F2491FC01E057FF4F8491882328
:1017400049F190E0880F991FFC01E854FF4FA591E3
:10175000B49182559F4FFC01C591D4919FB76111FF
:1017600008C0F8948C91209582238C9388818223E1
:101770000AC0623051F4F8948C91322F3095832353
:101780008C938881822B888304C0F8948C91822B5F
:101790008C939FBFDF91CF9108950F931F93CF93A9
:1017A000DF931F92CDB7DEB7282F30E0F901E8595B
:1017B000FF4F8491F901E458FF4F1491F901E0576C
:1017C000FF4F04910023C9F0882321F069830E9410
:1017D0006B0B6981E02FF0E0EE0FFF1FE255FF4F2A
:1017E000A591B4919FB7F8948C91611103C01095A5
:1017F000812301C0812B8C939FBF0F90DF91CF91EC
:101800001F910F910895CF93DF93282F30E0F901B6
:10181000E859FF4F8491F901E458FF4FD491F90141
:10182000E057FF4FC491CC2391F081110E946B0BC4
:10183000EC2FF0E0EE0FFF1FEC55FF4FA591B49198
:101840002C912D2381E090E021F480E002C080E023
:1018500090E0DF91CF910895CF92DF92EF92FF92C7
:101860000F931F93CF93DF937C016A01EB0100E09C
:1018700010E00C151D0571F06991D701ED91FC91F7
:101880000190F081E02DC7010995892B19F00F5FB8
:101890001F4FEFCFC801DF91CF911F910F91FF90A4
:1018A000EF90DF90CF9008956115710581F0DB0115
:1018B0000D900020E9F7AD0141505109461B570B2F
:1018C000DC01ED91FC910280F381E02D099480E030
:1018D00090E00895DC01ED91FC91DB0114964D91AF
:1018E0005C9115976D917C910280F381E02D0994B4
:1018F0000C94540CDC01ED91FC910190F081E02DF1
:10190000099461E173E00C94540C0F931F93CF93EF
:10191000DF93EC010E94540C8C01CE010E94810CDB
:10192000800F911FDF91CF911F910F9108958F929A
:101930009F92AF92BF92DF92EF92FF920F931F930D
:10194000CF93DF93CDB7DEB7A1970FB6F894DEBF84
:101950000FBECDBF7C01F42FD52ECB0119A22230B2
:1019600008F42AE08E010F5D1F4F822E912CA12CCE
:10197000B12C6F2F7D2DA50194010E945F0EF22FD7
:10198000D32ECA01015011096A3014F4E0E301C0FA
:10199000E7E3E60FD801EC93232B242B252B49F703
:1019A000B801C7010E94540CA1960FB6F894DEBF8F
:1019B0000FBECDBFDF91CF911F910F91FF90EF90A0
:1019C000DF90BF90AF909F908F900895CF92DF925D
:1019D000EF92FF920F931F93CF93DF93EC016A0175
:1019E0007B012115310579F4E881F9810190F081BD
:1019F000E02D642FDF91CF911F910F91FF90EF9019
:101A0000DF90CF9009942A303105E9F477FF1AC0AE
:101A10006DE20E947A0C8C0144275527BA014C19BB
:101A20005D096E097F092AE0CE010E94970C800FA4
:101A3000911FDF91CF911F910F91FF90EF90DF9059
:101A4000CF9008952AE0B701A601CE01DF91CF9192
:101A50001F910F91FF90EF90DF90CF900C94970C17
:101A60009A01AB01662757FD6095762F0C94E60C22
:101A7000FC01808191810C94520FCF93DF93EC0194
:101A800088819981009711F00E94520F1982188263
:101A90001D821C821B821A82DF91CF9108950F93C1
:101AA0001F93CF93DF93EC018B016F5F7F4F888192
:101AB00099810E94E10F009731F0998388831B83FD
:101AC0000A8381E001C080E0DF91CF911F910F91E7
:101AD0000895CF93DF93EC0188819981892B29F0B8
:101AE0008A819B818617970760F4CE010E944F0D73
:101AF000882341F08C819D81892B19F4E881F9813B
:101B0000108281E0DF91CF910895EF92FF920F93C1
:101B10001F93CF93DF93EC017B018A01BA010E94EE
:101B2000690D811104C0CE010E943D0D07C01D83C7
:101B30000C83B701888199810E94D910CE01DF9171
:101B4000CF911F910F91FF90EF900895FC011182AA
:101B5000108213821282158214826115710559F068
:101B6000FB0101900020E9F7AF0141505109461BEC
:101B7000570B0C94850D0895CF93DF93EC01FB0177
:101B80008617970761F0608171816115710529F0F1
:101B9000448155810E94850D02C00E943D0DCE01F9
:101BA000DF91CF910895FC0111821082138212827D
:101BB000158214820C94BC0DCF93DF93EC01611558
:101BC000710561F0FB0101900020E9F7AF01415080
:101BD0005109461B570B0E94850D02C00E943D0D06
:101BE000CE01DF91CF910895EF92FF920F931F9353
:101BF000CF93DF93EC017B010C811D816115710591
:101C000011F480E016C04115510591F0040F151F25
:101C1000B8010E94690D8823A1F3288139818C8144
:101C20009D81B701820F931F0E94D9101D830C83E1
:101C300081E0DF91CF911F910F91FF90EF90089578
:101C4000CF93DF93EC016115710569F0FB01019001
:101C50000020E9F7AF0141505109461B570B0E9484
:101C6000F40D811103C0CE010E943D0DCE01DF9124
:101C7000CF91089508950E94300B0E943A0E0E9461
:101C8000C100C0E0D0E00E9415062097E1F30E9459
:101C90000000F9CF089597FB072E16F4009407D0A3
:101CA00077FD09D00E94A00E07FC05D03EF4909568
:101CB00081959F4F0895709561957F4F0895A1E29A
:101CC0001A2EAA1BBB1BFD010DC0AA1FBB1FEE1FB6
:101CD000FF1FA217B307E407F50720F0A21BB30B01
:101CE000E40BF50B661F771F881F991F1A9469F77D
:101CF00060957095809590959B01AC01BD01CF01D9
:101D00000895052E97FB1EF400940E94980E57FD2F
:101D100007D00E945F0E07FC03D04EF40C94980E7F
:101D200050954095309521953F4F4F4F5F4F089507
:101D300090958095709561957F4F8F4F9F4F089537
:101D4000AA1BBB1B51E107C0AA1FBB1FA617B707E1
:101D500010F0A61BB70B881F991F5A95A9F78095FD
:101D60009095BC01CD010895EE0FFF1F0590F491F1
:101D7000E02D0994CF93DF938230910510F482E037
:101D800090E0E0918404F091850420E030E0A0E050
:101D9000B0E0309739F14081518148175907B8F0C8
:101DA0004817590771F482819381109729F013968F
:101DB0009C938E9312972CC09093850480938404F7
:101DC00027C02115310531F04217530718F0A9013A
:101DD000DB0101C0EF019A01BD01DF010280F38147
:101DE000E02DD7CF21153105F9F0281B390B243010
:101DF000310580F48A819B816115710521F0FB0119
:101E00009383828304C09093850480938404FE01AD
:101E1000329644C0FE01E20FF31F8193919322504A
:101E20003109398328833AC0209182043091830498
:101E3000232B41F42091020130910301309383045C
:101E40002093820420910001309101012115310578
:101E500041F42DB73EB74091040150910501241B78
:101E6000350BE0918204F0918304E217F307A0F4AC
:101E70002E1B3F0B2817390778F0AC014E5F5F4FE0
:101E80002417350748F04E0F5F1F5093830440938B
:101E900082048193919302C0E0E0F0E0CF01DF91F2
:101EA000CF910895CF93DF93009709F487C0FC0189
:101EB000329713821282C0918404D09185042097B6
:101EC00081F420813181280F391F80918204909103
:101ED00083048217930779F5F0938304E0938204D7
:101EE0006DC0DE0120E030E0AE17BF0750F412965F
:101EF0004D915C9113979D014115510509F1DA014E
:101F0000F3CFB383A28340815181840F951F8A1739
:101F10009B0771F48D919C911197840F951F0296E8
:101F20009183808312968D919C91139793838283E2
:101F30002115310529F4F0938504E09384043EC013
:101F4000D9011396FC93EE9312974D915D91A40FD6
:101F5000B51FEA17FB0779F480819181840F951FE3
:101F60000296D90111969C938E9382819381139648
:101F70009C938E931297E0E0F0E08A819B8100971A
:101F800019F0FE01EC01F9CFCE01029628813981CA
:101F9000820F931F20918204309183042817390700
:101FA00069F4309729F4109285041092840402C0D9
:101FB00013821282D0938304C0938204DF91CF9165
:101FC0000895A0E0B0E0E7EEFFE00C94FA10EC0119
:101FD000CB01209719F40E94BA0EB8C0FE01E60F9B
:101FE000F71F9E0122503109E217F30708F4ACC035
:101FF000D9010D911C91119706171707B8F00530FC
:10200000110508F49FC0A80144505109461757070D
:1020100008F498C002501109061B170B0193119385
:102020006D937C93CF010E94520F8CC05B01A01A6C
:10203000B10A4E01800E911EA0918404B0918504D6
:10204000612C712C60E070E0109709F449C0A8156C
:10205000B905C9F5ED90FC901197670142E0C40EF7
:10206000D11CCA14DB0478F147018A189B0864016B
:1020700042E0C40ED11C1296BC9012971396AC91FC
:10208000B5E0CB16D10440F0B282A3839182808266
:10209000D9018D939C9309C00E5F1F4F0E0D1F1D1C
:1020A000F90111830083EB2DFA2F6115710531F0D1
:1020B000DB011396FC93EE93129744C0F0938504D2
:1020C000E09384043FC06D917C911197661677066A
:1020D00008F43B01BD0112960D90BC91A02DB4CF28
:1020E000609182047091830468157905E9F468169B
:1020F0007906D0F44091000150910101411551053C
:1021000041F44DB75EB76091040170910501461B23
:10211000570BE417F507C0F4F0938304E0938204AF
:10212000F901918380830EC00E94BA0E7C01009752
:1021300059F0A801BE010E94AB10CE010E94520FBF
:10214000C70104C0CE0102C080E090E0CDB7DEB789
:10215000EEE00C941611FB01DC0102C001900D921F
:1021600041505040D8F70895FB0151915523B1F0EB
:10217000BF01DC01052E4D91442369F010D0D9F741
:10218000CD010190002049F04D91411108D0C9F3D3
:10219000FB014111EECF81E090E0019708954025C9
:1021A00039F0403229F440294B57465E08F0189424
:1021B0000895FB01DC0101900D920020E1F70895E4
:1021C000F999FECF92BD81BDF89A992780B50895FF
:1021D000262FF999FECF1FBA92BD81BD20BD0FB643
:1021E000F894FA9AF99A0FBE019608952F923F92A9
:1021F0004F925F926F927F928F929F92AF92BF9217
:10220000CF92DF92EF92FF920F931F93CF93DF93C2
:10221000CDB7DEB7CA1BDB0B0FB6F894DEBF0FBE1F
:10222000CDBF09942A88398848885F846E847D846C
:102230008C849B84AA84B984C884DF80EE80FD806E
:102240000C811B81AA81B981CE0FD11D0FB6F894E4
:10225000DEBF0FBECDBFED01089510E0C4ECD0E0AD
:1022600004C0FE010E94B60E2296C63CD107C9F7F3
:04227000F894FFCF10
:10227400000086048000640041542B435351004104
:10228400542B434F50533F0041542B4342414E443F
:102294003F0041540041542B4342414E443D50437E
:1022A400535F4D4F44450041542B4950523D3936FC
:1022B40030300041542B434D47443D310041542BB1
:1022C400434D47463D310041542B434E4D493D3229
:1022D4002C320041542B434C49503D310041542B86
:1022E400434D47533D222B353200220D00416C747F
:1022F4006120636F727265637461206E756D6572BF
:102304006F3A002020202020202020202020202080
:102314002020200D004E756D65726F732064697303
:10232400706F6E69626C65733A004E756D65726F9D
:1023340020696E76616C69646F004C696D706965C3
:102344007A6120636F727265637461004E6F2068F6
:10235400617920737566696369656E746520657358
:10236400706163696F20646520616C6D6163656E83
:10237400616D69656E746F00416C61726D6120619D
:102384006374697661646120706F7220656C206E7D
:10239400756D65726F3A00416C61726D61206465A0
:1023A40073616374697661646120706F7220656C17
:1023B400206E756D65726F3A0041646D696E2061BF
:1023C4006374697661646F3A0D004E756D65726F62
:1023D40020626F727261646F3A00456C206E756D95
:1023E40065726F206E6F20736520656E6375656E10
:1023F40074726120656E206C61206D656D6F726909
:1024040061206661766F7220646520766572666904
:10241400636172203A290053696E206163636573B6
:102424006F20616C2073697374656D612030784628
:1024340046002B434C49503A00415448002B434D2D
:10244400543A0041646D696E403A006C696D70697C
:102454006172206D656D6F72696100426F727261A5
:1024640072403A00416C7461403A0052657365747D
:10247400000000000036082C0CA108150889088803
:10248400080D0A006E616E00696E66006F76660064
:022494002E0018
:107800000C94343C0C94513C0C94513C0C94513CE1
:107810000C94513C0C94513C0C94513C0C94513CB4
:107820000C94513C0C94513C0C94513C0C94513CA4
:107830000C94513C0C94513C0C94513C0C94513C94
:107840000C94513C0C94513C0C94513C0C94513C84
:107850000C94513C0C94513C0C94513C0C94513C74
:107860000C94513C0C94513C11241FBECFEFD8E036
:10787000DEBFCDBF11E0A0E0B1E0ECE9FFE702C060
:1078800005900D92A230B107D9F712E0A2E0B1E065
:1078900001C01D92AD30B107E1F70E942D3D0C945F
:1078A000CC3F0C94003C982F959595959595959582
:1078B000905D8F708A307CF0282F295A8091C0000B
:1078C00085FFFCCF9093C6008091C00085FFFCCF60
:1078D0002093C6000895282F205DF0CF982F809127
:1078E000C00085FFFCCF9093C6000895EF92FF92F1
:1078F0000F931F93EE24FF2487018091C00087FD22
:1079000017C00894E11CF11C011D111D81E4E8164B
:1079100082E4F8068FE0080780E0180770F3E09132
:107920000401F091050109958091C00087FFE9CF1E
:107930008091C6001F910F91FF90EF9008950E94D3
:10794000763C982F8091C00085FFFCCF9093C600B5
:1079500091362CF490330CF09053892F089597555D
:10796000892F08951F930E949F3C182F0E949F3CCF
:107970001295107F810F1F9108951F93182F882350
:1079800021F00E94763C1150E1F71F9108951F935A
:10799000182F0E94763C803249F0809103018F5F5E
:1079A000809303018530C1F01F9108958091C0003C
:1079B00085FFFCCF84E18093C6008091C00085FFE5
:1079C000FCCF1093C6008091C00085FFFCCF80E102
:1079D0008093C6001F910895E0910401F091050184
:1079E00009951F9108950E94763C803241F0809164
:1079F00003018F5F80930301853081F008958091AA
:107A0000C00085FFFCCF84E18093C6008091C00058
:107A100085FFFCCF80E18093C6000895E0910401CA
:107A2000F09105010995089540E951E08823A1F0FE
:107A30002D9A28EE33E0FA013197F1F721503040CA
:107A4000D1F72D9828EE33E0FA013197F1F7215064
:107A50003040D1F7815061F708953F924F925F9285
:107A60006F927F928F929F92AF92BF92CF92DF924E
:107A7000EF92FF920F931F93CF93DF93000080E16B
:107A80008093C4001092C50088E18093C10086E015
:107A90008093C2005098589A259A81E00E94143D24
:107AA00024E1F22E9EE1E92E85E9D82E0FE0C02ECA
:107AB00010E1B12EAA24A394B1E49B2EA6E58A2E50
:107AC000F2E57F2EE0E26E2E79E4572E63E5462E36
:107AD00050E5352E0E94763C8033B1F18133B9F107
:107AE000803409F46FC0813409F476C0823409F41B
:107AF00085C0853409F488C0803531F1823521F1A3
:107B0000813511F1853509F485C0863509F48DC0BC
:107B1000843609F496C0843709F403C1853709F423
:107B200072C1863709F466C0809103018F5F80932C
:107B30000301853079F6E0910401F0910501099582
:107B40000E94763C803351F60E94F33CC3CF0E94E2
:107B5000763C803249F78091C00085FFFCCFF092DF
:107B6000C6008091C00085FFFCCF9092C600809136
:107B7000C00085FFFCCF8092C6008091C00085FFC9
:107B8000FCCF7092C6008091C00085FFFCCF609250
:107B9000C6008091C00085FFFCCF5092C600809146
:107BA000C00085FFFCCF4092C6008091C00085FFD9
:107BB000FCCF3092C6008091C00085FFFCCFB09210
:107BC000C60088CF0E94763C863808F4BDCF0E945C
:107BD000763C0E94F33C7ECF0E94763C803809F4CC
:107BE0009CC0813809F40BC1823809F43CC1883942
:107BF00009F48FC080E00E94C73C6CCF84E10E94F2
:107C0000BD3C0E94F33C66CF85E00E94BD3C0E94D3
:107C1000F33C60CF0E94763C809306010E94763C44
:107C2000809307010E94F33C55CF0E94763C80333D
:107C300009F41DC183E00E94BD3C80E00E94C73C66
:107C400049CF0E94763C809309020E94763C809343
:107C5000080280910C028E7F80930C020E94763C79
:107C6000853409F415C18091080290910902892B8D
:107C700089F000E010E00E94763CF801E85FFE4FDA
:107C800080830F5F1F4F80910802909109020817AF
:107C9000190788F30E94763C803209F045CF809125
:107CA0000C0280FF01C16091060170910701660F0F
:107CB000771F7093070160930601A0910802B091AD
:107CC00009021097C9F0E8E0F1E09B01AD014E0F09
:107CD0005F1FF999FECF32BD21BD819180BDFA9A17
:107CE000F99A2F5F3F4FE417F50799F76A0F7B1F4B
:107CF00070930701609306018091C00085FFFCCF5F
:107D0000F092C6008091C00085FFFCCFB092C60003
:107D1000E1CE83E00E94C73CDDCE82E00E94C73CFA
:107D2000D9CE0E94763C809309020E94763C8093D3
:107D300008028091060190910701880F991F909386
:107D40000701809306010E94763C853409F4A6C0A1
:107D500080910C028E7F80930C020E94763C8032D0
:107D600009F0B8CE8091C00085FFFCCFF092C6002C
:107D7000609108027091090261157105B9F140E046
:107D800050E080910C02A82FA170B82FB27011C0E2
:107D9000BB2309F45CC0E0910601F0910701319624
:107DA000F0930701E09306014F5F5F4F46175707B7
:107DB000E8F4AA2369F3F999FECF209106013091E6
:107DC000070132BD21BDF89A90B58091C00085FFB2
:107DD000FCCF9093C6002F5F3F4F30930701209355
:107DE00006014F5F5F4F4617570718F38091C00099
:107DF00085FDE5CE8091C00085FFF8CFE0CE81E023
:107E00000E94C73C67CE0E94763C803209F08CCE3F
:107E10008091C00085FFFCCFF092C6008091C00029
:107E200085FFFCCFE092C6008091C00085FFFCCFAB
:107E3000D092C6008091C00085FFFCCFC092C600E2
:107E40008091C00085FFFCCFB092C60043CEE09188
:107E50000601F091070194918091C00085FFFCCF4D
:107E60009093C6009CCF80E10E94C73C33CE0E9415
:107E7000763C0E94763C182F0E94763C112309F430
:107E800083C0113009F484C08FE00E94C73C22CE29
:107E900080910C02816080930C02E5CE80910C02EF
:107EA000816080930C0259CF809107018823880F4D
:107EB000880B8A2180930B02809106019091070123
:107EC000880F991F90930701809306018091080203
:107ED00080FF09C080910802909109020196909359
:107EE000090280930802F894F999FECF1127E091D6
:107EF0000601F0910701C8E0D1E08091080290915D
:107F00000902103091F40091570001700130D9F34B
:107F100003E000935700E89500915700017001308D
:107F2000D9F301E100935700E89509901990009169
:107F3000570001700130D9F301E000935700E89534
:107F40001395103498F011270091570001700130FB
:107F5000D9F305E000935700E895009157000170B0
:107F60000130D9F301E100935700E895329602976A
:107F700009F0C7CF103011F00296E5CF112480919F
:107F8000C00085FFB9CEBCCE8EE10E94C73CA2CD19
:0C7F900085E90E94C73C9ECDF894FFCF0D
:027F9C00800063
:040000030000780081
:00000001FF
